{
  "contractName": "ADPChannel",
  "abi": [
    {
      "inputs": [
        {
          "name": "token",
          "type": "address"
        },
        {
          "name": "sender",
          "type": "address"
        },
        {
          "name": "receiver",
          "type": "address"
        },
        {
          "name": "adpChannelManager",
          "type": "address"
        },
        {
          "name": "gracePeriod",
          "type": "uint256"
        }
      ],
      "payable": false,
      "stateMutability": "nonpayable",
      "type": "constructor"
    },
    {
      "anonymous": false,
      "inputs": [
        {
          "indexed": false,
          "name": "to",
          "type": "address"
        },
        {
          "indexed": false,
          "name": "totalPaidToReceiver",
          "type": "uint256"
        }
      ],
      "name": "Withdrawal",
      "type": "event"
    },
    {
      "constant": false,
      "inputs": [
        {
          "name": "nonce",
          "type": "uint256"
        },
        {
          "name": "totalPaidToReceiver",
          "type": "uint256"
        },
        {
          "name": "signReceiverV",
          "type": "uint8"
        },
        {
          "name": "signReceiverR",
          "type": "bytes32"
        },
        {
          "name": "signReceiverS",
          "type": "bytes32"
        },
        {
          "name": "signSenderV",
          "type": "uint8"
        },
        {
          "name": "signSenderR",
          "type": "bytes32"
        },
        {
          "name": "signSenderS",
          "type": "bytes32"
        }
      ],
      "name": "settlementReceiver",
      "outputs": [],
      "payable": false,
      "stateMutability": "nonpayable",
      "type": "function"
    },
    {
      "constant": false,
      "inputs": [
        {
          "name": "nonce",
          "type": "uint256"
        },
        {
          "name": "totalPaidToReceiver",
          "type": "uint256"
        },
        {
          "name": "withdrawalAmount",
          "type": "uint256"
        },
        {
          "name": "signReceiverV",
          "type": "uint8"
        },
        {
          "name": "signReceiverR",
          "type": "bytes32"
        },
        {
          "name": "signReceiverS",
          "type": "bytes32"
        },
        {
          "name": "signSenderV",
          "type": "uint8"
        },
        {
          "name": "signSenderR",
          "type": "bytes32"
        },
        {
          "name": "signSenderS",
          "type": "bytes32"
        }
      ],
      "name": "settlementSender",
      "outputs": [],
      "payable": false,
      "stateMutability": "nonpayable",
      "type": "function"
    },
    {
      "constant": false,
      "inputs": [],
      "name": "withdrawal",
      "outputs": [],
      "payable": false,
      "stateMutability": "nonpayable",
      "type": "function"
    },
    {
      "constant": true,
      "inputs": [],
      "name": "getChannel",
      "outputs": [
        {
          "name": "balance",
          "type": "uint256"
        },
        {
          "name": "capacity",
          "type": "uint256"
        },
        {
          "name": "senderWithdrawableAmount",
          "type": "uint256"
        },
        {
          "name": "receiverWithdrawableAmount",
          "type": "uint256"
        },
        {
          "name": "nonce",
          "type": "uint256"
        },
        {
          "name": "cumulativeAmountWithdrawedByReceiver",
          "type": "uint256"
        },
        {
          "name": "status",
          "type": "uint8"
        }
      ],
      "payable": false,
      "stateMutability": "view",
      "type": "function"
    },
    {
      "constant": true,
      "inputs": [
        {
          "name": "hash",
          "type": "bytes32"
        },
        {
          "name": "v",
          "type": "uint8"
        },
        {
          "name": "r",
          "type": "bytes32"
        },
        {
          "name": "s",
          "type": "bytes32"
        },
        {
          "name": "signerAddress",
          "type": "address"
        }
      ],
      "name": "x",
      "outputs": [
        {
          "name": "",
          "type": "bytes32"
        }
      ],
      "payable": false,
      "stateMutability": "pure",
      "type": "function"
    },
    {
      "constant": true,
      "inputs": [
        {
          "name": "hash",
          "type": "bytes32"
        },
        {
          "name": "v",
          "type": "uint8"
        },
        {
          "name": "r",
          "type": "bytes32"
        },
        {
          "name": "s",
          "type": "bytes32"
        },
        {
          "name": "signerAddress",
          "type": "address"
        }
      ],
      "name": "verify",
      "outputs": [
        {
          "name": "",
          "type": "bool"
        }
      ],
      "payable": false,
      "stateMutability": "pure",
      "type": "function"
    }
  ],
  "bytecode": "0x608060405262015180600055603c60015534801561001c57600080fd5b5060405160a080611b0e833981018060405281019080805190602001909291908051906020019092919080519060200190929190805190602001909291908051906020019092919050505084600560006101000a81548173ffffffffffffffffffffffffffffffffffffffff021916908373ffffffffffffffffffffffffffffffffffffffff16021790555083600660006101000a81548173ffffffffffffffffffffffffffffffffffffffff021916908373ffffffffffffffffffffffffffffffffffffffff16021790555082600760006101000a81548173ffffffffffffffffffffffffffffffffffffffff021916908373ffffffffffffffffffffffffffffffffffffffff16021790555033600860006101000a81548173ffffffffffffffffffffffffffffffffffffffff021916908373ffffffffffffffffffffffffffffffffffffffff1602179055508060008190555081600960006101000a81548173ffffffffffffffffffffffffffffffffffffffff021916908373ffffffffffffffffffffffffffffffffffffffff1602179055506000805414156101c857620151806000819055505b5050505050611932806101dc6000396000f300608060405260043610610078576000357c0100000000000000000000000000000000000000000000000000000000900463ffffffff1680631760671b1461007d5780632cbec50914610113578063bf835cba1461019c578063cc7d675c146101ff578063cdc69da114610291578063d4e9329214610324575b600080fd5b34801561008957600080fd5b506100f56004803603810190808035600019169060200190929190803560ff16906020019092919080356000191690602001909291908035600019169060200190929190803573ffffffffffffffffffffffffffffffffffffffff16906020019092919050505061033b565b60405180826000191660001916815260200191505060405180910390f35b34801561011f57600080fd5b5061019a6004803603810190808035906020019092919080359060200190929190803560ff16906020019092919080356000191690602001909291908035600019169060200190929190803560ff16906020019092919080356000191690602001909291908035600019169060200190929190505050610349565b005b3480156101a857600080fd5b506101b16107f5565b604051808881526020018781526020018681526020018581526020018481526020018381526020018260018111156101e557fe5b60ff16815260200197505050505050505060405180910390f35b34801561020b57600080fd5b506102776004803603810190808035600019169060200190929190803560ff16906020019092919080356000191690602001909291908035600019169060200190929190803573ffffffffffffffffffffffffffffffffffffffff169060200190929190505050610943565b604051808215151515815260200191505060405180910390f35b34801561029d57600080fd5b50610322600480360381019080803590602001909291908035906020019092919080359060200190929190803560ff16906020019092919080356000191690602001909291908035600019169060200190929190803560ff16906020019092919080356000191690602001909291908035600019169060200190929190505050610bdc565b005b34801561033057600080fd5b506103396110cf565b005b600083905095945050505050565b600080600080600860009054906101000a900473ffffffffffffffffffffffffffffffffffffffff1673ffffffffffffffffffffffffffffffffffffffff163373ffffffffffffffffffffffffffffffffffffffff1614806103f85750600760009054906101000a900473ffffffffffffffffffffffffffffffffffffffff1673ffffffffffffffffffffffffffffffffffffffff163373ffffffffffffffffffffffffffffffffffffffff16145b151561040357600080fd5b6003548c1015151561041457600080fd5b6003548c141515610524578b8b60405160200180838152602001828152602001925050506040516020818303038152906040526040518082805190602001908083835b60208310151561047c5780518252602082019150602081019050602083039250610457565b6001836020036101000a038019825116818451168082178552505050505050905001915050604051809103902093506104da848b8b8b600760009054906101000a900473ffffffffffffffffffffffffffffffffffffffff16610943565b15156104e557600080fd5b61051484888888600660009054906101000a900473ffffffffffffffffffffffffffffffffffffffff16610943565b151561051f57600080fd5b61052a565b6004549a505b600b549250600c548b03600b8190555082600b5403915042600254111561065d57600560009054906101000a900473ffffffffffffffffffffffffffffffffffffffff169050600a54600b54018173ffffffffffffffffffffffffffffffffffffffff166370a08231306040518263ffffffff167c0100000000000000000000000000000000000000000000000000000000028152600401808273ffffffffffffffffffffffffffffffffffffffff1673ffffffffffffffffffffffffffffffffffffffff168152602001915050602060405180830381600087803b15801561061257600080fd5b505af1158015610626573d6000803e3d6000fd5b505050506040513d602081101561063c57600080fd5b8101908080519060200190929190505050101561065c576000600a819055505b5b60006002819055508b6003819055508a600481905550600960009054906101000a900473ffffffffffffffffffffffffffffffffffffffff1673ffffffffffffffffffffffffffffffffffffffff1663fd062636600560009054906101000a900473ffffffffffffffffffffffffffffffffffffffff16600660009054906101000a900473ffffffffffffffffffffffffffffffffffffffff168f8660016040518663ffffffff167c0100000000000000000000000000000000000000000000000000000000028152600401808673ffffffffffffffffffffffffffffffffffffffff1673ffffffffffffffffffffffffffffffffffffffff1681526020018573ffffffffffffffffffffffffffffffffffffffff1673ffffffffffffffffffffffffffffffffffffffff1681526020018481526020018381526020018260018111156107a657fe5b60ff16815260200195505050505050600060405180830381600087803b1580156107cf57600080fd5b505af11580156107e3573d6000803e3d6000fd5b50505050505050505050505050505050565b600080600080600080600080600a549550600b5494506003549350600560009054906101000a900473ffffffffffffffffffffffffffffffffffffffff1690508073ffffffffffffffffffffffffffffffffffffffff166370a08231306040518263ffffffff167c0100000000000000000000000000000000000000000000000000000000028152600401808273ffffffffffffffffffffffffffffffffffffffff1673ffffffffffffffffffffffffffffffffffffffff168152602001915050602060405180830381600087803b1580156108d057600080fd5b505af11580156108e4573d6000803e3d6000fd5b505050506040513d60208110156108fa57600080fd5b81019080805190602001909291905050509750600a54600c546004548a0301039650600c5492504260025410156109345760009150610939565b600191505b5090919293949596565b6000606060008373ffffffffffffffffffffffffffffffffffffffff16600189898989604051600081526020016040526040518085600019166000191681526020018460ff1660ff1681526020018360001916600019168152602001826000191660001916815260200194505050505060206040516020810390808403906000865af11580156109d7573d6000803e3d6000fd5b5050506020604051035173ffffffffffffffffffffffffffffffffffffffff161415610a065760019250610bd1565b6040805190810160405280601c81526020017f19457468657265756d205369676e6564204d6573736167653a0a333200000000815250915081886040516020018083805190602001908083835b602083101515610a785780518252602082019150602081019050602083039250610a53565b6001836020036101000a0380198251168184511680821785525050505050509050018260001916600019168152602001925050506040516020818303038152906040526040518082805190602001908083835b602083101515610af05780518252602082019150602081019050602083039250610acb565b6001836020036101000a038019825116818451168082178552505050505050905001915050604051809103902090508373ffffffffffffffffffffffffffffffffffffffff16600182898989604051600081526020016040526040518085600019166000191681526020018460ff1660ff1681526020018360001916600019168152602001826000191660001916815260200194505050505060206040516020810390808403906000865af1158015610bad573d6000803e3d6000fd5b5050506020604051035173ffffffffffffffffffffffffffffffffffffffff161492505b505095945050505050565b600080600860009054906101000a900473ffffffffffffffffffffffffffffffffffffffff1673ffffffffffffffffffffffffffffffffffffffff163373ffffffffffffffffffffffffffffffffffffffff161480610c885750600760009054906101000a900473ffffffffffffffffffffffffffffffffffffffff1673ffffffffffffffffffffffffffffffffffffffff163373ffffffffffffffffffffffffffffffffffffffff16145b80610ce05750600660009054906101000a900473ffffffffffffffffffffffffffffffffffffffff1673ffffffffffffffffffffffffffffffffffffffff163373ffffffffffffffffffffffffffffffffffffffff16145b1515610ceb57600080fd5b6003548b10151515610cfc57600080fd5b6003548b141515610e0c578a8a60405160200180838152602001828152602001925050506040516020818303038152906040526040518082805190602001908083835b602083101515610d645780518252602082019150602081019050602083039250610d3f565b6001836020036101000a03801982511681845116808217855250505050505090500191505060405180910390209150610dc282898989600760009054906101000a900473ffffffffffffffffffffffffffffffffffffffff16610943565b1515610dcd57600080fd5b610dfc82868686600660009054906101000a900473ffffffffffffffffffffffffffffffffffffffff16610943565b1515610e0757600080fd5b610e12565b60045499505b600560009054906101000a900473ffffffffffffffffffffffffffffffffffffffff16905088600a54600c548c0301018173ffffffffffffffffffffffffffffffffffffffff166370a08231306040518263ffffffff167c0100000000000000000000000000000000000000000000000000000000028152600401808273ffffffffffffffffffffffffffffffffffffffff1673ffffffffffffffffffffffffffffffffffffffff168152602001915050602060405180830381600087803b158015610edd57600080fd5b505af1158015610ef1573d6000803e3d6000fd5b505050506040513d6020811015610f0757600080fd5b810190808051906020019092919050505010151515610f2557600080fd5b600054420160028190555088600a600082825401925050819055508a60038190555089600481905550600960009054906101000a900473ffffffffffffffffffffffffffffffffffffffff1673ffffffffffffffffffffffffffffffffffffffff1663fd062636600560009054906101000a900473ffffffffffffffffffffffffffffffffffffffff16600660009054906101000a900473ffffffffffffffffffffffffffffffffffffffff168e8d60006040518663ffffffff167c0100000000000000000000000000000000000000000000000000000000028152600401808673ffffffffffffffffffffffffffffffffffffffff1673ffffffffffffffffffffffffffffffffffffffff1681526020018573ffffffffffffffffffffffffffffffffffffffff1673ffffffffffffffffffffffffffffffffffffffff16815260200184815260200183815260200182600181111561108157fe5b60ff16815260200195505050505050600060405180830381600087803b1580156110aa57600080fd5b505af11580156110be573d6000803e3d6000fd5b505050505050505050505050505050565b600080600860009054906101000a900473ffffffffffffffffffffffffffffffffffffffff1673ffffffffffffffffffffffffffffffffffffffff163373ffffffffffffffffffffffffffffffffffffffff16148061117b5750600760009054906101000a900473ffffffffffffffffffffffffffffffffffffffff1673ffffffffffffffffffffffffffffffffffffffff163373ffffffffffffffffffffffffffffffffffffffff16145b806111d35750600660009054906101000a900473ffffffffffffffffffffffffffffffffffffffff1673ffffffffffffffffffffffffffffffffffffffff163373ffffffffffffffffffffffffffffffffffffffff16145b15156111de57600080fd5b600560009054906101000a900473ffffffffffffffffffffffffffffffffffffffff1690506000600b54111561158257600b5491508073ffffffffffffffffffffffffffffffffffffffff166370a08231306040518263ffffffff167c0100000000000000000000000000000000000000000000000000000000028152600401808273ffffffffffffffffffffffffffffffffffffffff1673ffffffffffffffffffffffffffffffffffffffff168152602001915050602060405180830381600087803b1580156112ae57600080fd5b505af11580156112c2573d6000803e3d6000fd5b505050506040513d60208110156112d857600080fd5b81019080805190602001909291905050508211156113c9578073ffffffffffffffffffffffffffffffffffffffff166370a08231306040518263ffffffff167c0100000000000000000000000000000000000000000000000000000000028152600401808273ffffffffffffffffffffffffffffffffffffffff1673ffffffffffffffffffffffffffffffffffffffff168152602001915050602060405180830381600087803b15801561138b57600080fd5b505af115801561139f573d6000803e3d6000fd5b505050506040513d60208110156113b557600080fd5b810190808051906020019092919050505091505b8073ffffffffffffffffffffffffffffffffffffffff1663a9059cbb600760009054906101000a900473ffffffffffffffffffffffffffffffffffffffff16846040518363ffffffff167c0100000000000000000000000000000000000000000000000000000000028152600401808373ffffffffffffffffffffffffffffffffffffffff1673ffffffffffffffffffffffffffffffffffffffff16815260200182815260200192505050602060405180830381600087803b15801561148e57600080fd5b505af11580156114a2573d6000803e3d6000fd5b505050506040513d60208110156114b857600080fd5b810190808051906020019092919050505015156114d457600080fd5b7f7fcf532c15f0a6db0bd6d0e038bea71d30d808c7d98cb3bf7268a95bf5081b65600760009054906101000a900473ffffffffffffffffffffffffffffffffffffffff1683604051808373ffffffffffffffffffffffffffffffffffffffff1673ffffffffffffffffffffffffffffffffffffffff1681526020018281526020019250505060405180910390a181600b6000828254039250508190555081600c600082825401925050819055505b600154420360025410801561159957506000600a54115b1561190257600a5491508073ffffffffffffffffffffffffffffffffffffffff166370a08231306040518263ffffffff167c0100000000000000000000000000000000000000000000000000000000028152600401808273ffffffffffffffffffffffffffffffffffffffff1673ffffffffffffffffffffffffffffffffffffffff168152602001915050602060405180830381600087803b15801561163e57600080fd5b505af1158015611652573d6000803e3d6000fd5b505050506040513d602081101561166857600080fd5b8101908080519060200190929190505050821115611759578073ffffffffffffffffffffffffffffffffffffffff166370a08231306040518263ffffffff167c0100000000000000000000000000000000000000000000000000000000028152600401808273ffffffffffffffffffffffffffffffffffffffff1673ffffffffffffffffffffffffffffffffffffffff168152602001915050602060405180830381600087803b15801561171b57600080fd5b505af115801561172f573d6000803e3d6000fd5b505050506040513d602081101561174557600080fd5b810190808051906020019092919050505091505b8073ffffffffffffffffffffffffffffffffffffffff1663a9059cbb600660009054906101000a900473ffffffffffffffffffffffffffffffffffffffff16846040518363ffffffff167c0100000000000000000000000000000000000000000000000000000000028152600401808373ffffffffffffffffffffffffffffffffffffffff1673ffffffffffffffffffffffffffffffffffffffff16815260200182815260200192505050602060405180830381600087803b15801561181e57600080fd5b505af1158015611832573d6000803e3d6000fd5b505050506040513d602081101561184857600080fd5b8101908080519060200190929190505050151561186457600080fd5b7f7fcf532c15f0a6db0bd6d0e038bea71d30d808c7d98cb3bf7268a95bf5081b65600660009054906101000a900473ffffffffffffffffffffffffffffffffffffffff1683604051808373ffffffffffffffffffffffffffffffffffffffff1673ffffffffffffffffffffffffffffffffffffffff1681526020018281526020019250505060405180910390a181600a600082825403925050819055505b50505600a165627a7a72305820e89688daf1d32309150d0adcbac94da770895df458f91789b5e0f82185d6d7da0029",
  "source": "pragma solidity ^0.4.18;\r\n\r\nimport 'zeppelin-solidity/contracts/token/ERC20/ERC20.sol';\r\n\r\nimport \"./ADPChannelManager.sol\";\r\n\r\ncontract ADPChannel {\r\n\r\n  enum SettlementType{Sender, Receiver}\r\n  enum ContractStatus{Ready, WaitingForSettlement}\r\n\r\n  event Withdrawal(address to, uint totalPaidToReceiver);\r\n\r\n  uint GracePeriod = 1 days;\r\n  uint TimeSecurityFix = 1 minutes;\r\n  uint SenderSettlementTime;\r\n  uint LastSettledNonce;\r\n  uint LastSettledCumulativeAmount;\r\n\r\n  address Token;\r\n  address Sender;\r\n  address Receiver;\r\n  address ChannelOwner;\r\n  address ADPChannelManagerAddress;\r\n\r\n  uint SenderWithdrawableAmount;\r\n  uint ReceiverWithdrawableAmount;\r\n  uint CumulativeAmountWithdrawedByReceiver;\r\n  \r\n  constructor(address token, address sender, address receiver, address adpChannelManager, uint gracePeriod) public {\r\n    Token = token;\r\n    Sender = sender;\r\n    Receiver = receiver; \r\n    ChannelOwner = msg.sender;\r\n    GracePeriod = gracePeriod;\r\n    ADPChannelManagerAddress = adpChannelManager;\r\n    if(GracePeriod == 0){\r\n      GracePeriod = 1 days;\r\n    }\r\n  }\r\n\r\n  function settlementReceiver(uint nonce, uint totalPaidToReceiver, \r\n    uint8 signReceiverV, bytes32 signReceiverR, bytes32 signReceiverS,\r\n    uint8 signSenderV, bytes32 signSenderR, bytes32 signSenderS) public {\r\n\r\n    require (msg.sender == ChannelOwner || msg.sender == Receiver);\r\n    require (nonce >= LastSettledNonce);\r\n\r\n    if(nonce != LastSettledNonce) {\r\n      bytes32 hash = keccak256(abi.encodePacked(nonce, totalPaidToReceiver));\r\n      require (verify(hash, signReceiverV, signReceiverR, signReceiverS, Receiver));\r\n      require (verify(hash, signSenderV, signSenderR, signSenderS, Sender));\r\n    }\r\n    else {\r\n      totalPaidToReceiver = LastSettledCumulativeAmount; // receiver lost last ccs, sends newly constructed without signatures\r\n    }\r\n    \r\n    uint prevReceiverWithdrawablewAmount = ReceiverWithdrawableAmount;\r\n    ReceiverWithdrawableAmount = totalPaidToReceiver - CumulativeAmountWithdrawedByReceiver;\r\n    uint withdrawalAmount = ReceiverWithdrawableAmount - prevReceiverWithdrawablewAmount;\r\n    \r\n\r\n    //check sender settlement totalPaidToReceiver\r\n    if(SenderSettlementTime > now) {\r\n      ERC20 tokenObject = ERC20(Token);\r\n      if(tokenObject.balanceOf(this) < ReceiverWithdrawableAmount + SenderWithdrawableAmount) {\r\n        SenderWithdrawableAmount = 0;\r\n      }\r\n    }\r\n\r\n    SenderSettlementTime = 0;\r\n    LastSettledNonce = nonce;\r\n    LastSettledCumulativeAmount = totalPaidToReceiver;\r\n\r\n    ADPChannelManager(ADPChannelManagerAddress).publishSettlement(Token, Sender, nonce, withdrawalAmount, SettlementType.Receiver);\r\n  }\r\n\r\n  function settlementSender(uint nonce, uint totalPaidToReceiver, uint withdrawalAmount,\r\n    uint8 signReceiverV, bytes32 signReceiverR, bytes32 signReceiverS,\r\n    uint8 signSenderV, bytes32 signSenderR, bytes32 signSenderS) public {\r\n\r\n\r\n    require (msg.sender == ChannelOwner || msg.sender == Receiver || msg.sender == Sender);\r\n    require (nonce >= LastSettledNonce);\r\n    if(nonce != LastSettledNonce) {\r\n      bytes32 hash = keccak256(abi.encodePacked(nonce, totalPaidToReceiver));\r\n      require (verify(hash, signReceiverV, signReceiverR, signReceiverS, Receiver));\r\n      require (verify(hash, signSenderV, signSenderR, signSenderS, Sender));\r\n    }\r\n    else {\r\n      totalPaidToReceiver = LastSettledCumulativeAmount; // sender lost last ccs, sends newly constructed without signatures\r\n    }\r\n    \r\n    ERC20 tokenObject = ERC20(Token);\r\n    // check that sender can withdraw withdrawalAmount\r\n    require(tokenObject.balanceOf(this) >= (totalPaidToReceiver - CumulativeAmountWithdrawedByReceiver) + SenderWithdrawableAmount + withdrawalAmount);\r\n    \r\n    SenderSettlementTime = now + GracePeriod;\r\n    SenderWithdrawableAmount += withdrawalAmount;\r\n    LastSettledNonce = nonce;      \r\n    LastSettledCumulativeAmount = totalPaidToReceiver;\r\n    ADPChannelManager(ADPChannelManagerAddress).publishSettlement(Token, Sender, nonce, withdrawalAmount, SettlementType.Sender);\r\n  }  \r\n  \r\n  function withdrawal () public {\r\n    require (msg.sender == ChannelOwner || msg.sender == Receiver || msg.sender == Sender);\r\n    uint transferAmount;\r\n    ERC20 tokenObject = ERC20(Token);\r\n    if(ReceiverWithdrawableAmount > 0) {\r\n      transferAmount = ReceiverWithdrawableAmount;\r\n\r\n      // Case when receiver didn't dispute settlement during grace period, receiver should still be able to withdraw\r\n      if(transferAmount > tokenObject.balanceOf(this)) {\r\n        transferAmount = tokenObject.balanceOf(this); \r\n      }\r\n      require(tokenObject.transfer(Receiver, transferAmount));\r\n      emit Withdrawal(Receiver, transferAmount);\r\n      ReceiverWithdrawableAmount -= transferAmount;\r\n      CumulativeAmountWithdrawedByReceiver += transferAmount;\r\n    }\r\n\r\n    if(SenderSettlementTime < now - TimeSecurityFix && SenderWithdrawableAmount > 0) {\r\n      transferAmount = SenderWithdrawableAmount;\r\n      \r\n      if(transferAmount > tokenObject.balanceOf(this)) {\r\n        transferAmount = tokenObject.balanceOf(this);\r\n      }\r\n      require(tokenObject.transfer(Sender, transferAmount));\r\n      emit Withdrawal(Sender, transferAmount);\r\n      SenderWithdrawableAmount -= transferAmount;\r\n    }\r\n  }\r\n\r\n  function getChannel () external view returns(\r\n    uint balance, //Amount of tokens on the account of a Channel Contract\r\n    uint capacity,\r\n    uint senderWithdrawableAmount,  \r\n    uint receiverWithdrawableAmount,\r\n    uint nonce,\r\n    uint cumulativeAmountWithdrawedByReceiver,\r\n    ContractStatus status\r\n    ) {\r\n    senderWithdrawableAmount = SenderWithdrawableAmount;\r\n    receiverWithdrawableAmount = ReceiverWithdrawableAmount;\r\n    nonce = LastSettledNonce;\r\n    ERC20 tokenObject = ERC20(Token);\r\n    balance = tokenObject.balanceOf(this);\r\n    capacity = balance - LastSettledCumulativeAmount + CumulativeAmountWithdrawedByReceiver - SenderWithdrawableAmount;\r\n    cumulativeAmountWithdrawedByReceiver = CumulativeAmountWithdrawedByReceiver;\r\n    if(SenderSettlementTime < now)\r\n      status = ContractStatus.Ready;\r\n    else\r\n      status = ContractStatus.WaitingForSettlement;\r\n  }\r\n\r\n  function x(bytes32 hash, uint8 v, bytes32 r, bytes32 s, address signerAddress) public pure returns(bytes32) {\r\n      return r;\r\n  }\r\n\r\n  function verify(bytes32 hash, uint8 v, bytes32 r, bytes32 s, address signerAddress) public pure returns(bool) {\r\n    if(ecrecover(hash, v, r, s) == signerAddress)\r\n      return true;\r\n    bytes memory prefix = \"\\x19Ethereum Signed Message:\\n32\";\r\n    bytes32 prefixedHash = keccak256(abi.encodePacked(prefix, hash));\r\n    return ecrecover(prefixedHash, v, r, s) == signerAddress;\r\n  }\r\n}",
  "sourcePath": "C:\\Exilion\\Projects\\itps-channel-contract\\contracts\\ADPChannel.sol",
  "compiler": {
    "name": "solc",
    "version": "0.4.24+commit.e67f0147.Emscripten.clang"
  },
  "schemaVersion": "2.0.1",
  "updatedAt": "2018-08-23T19:42:17.789Z"
}